{
  "_format": "hh-sol-artifact-1",
  "contractName": "CryptoDevsDAO",
  "sourceName": "contracts/CryptoDevsDAO.sol",
  "abi": [
    {
      "inputs": [
        {
          "internalType": "address",
          "name": "_nftMarketplace",
          "type": "address"
        },
        {
          "internalType": "address",
          "name": "_cryptoDevsNFT",
          "type": "address"
        }
      ],
      "stateMutability": "payable",
      "type": "constructor"
    },
    {
      "anonymous": false,
      "inputs": [
        {
          "indexed": true,
          "internalType": "address",
          "name": "previousOwner",
          "type": "address"
        },
        {
          "indexed": true,
          "internalType": "address",
          "name": "newOwner",
          "type": "address"
        }
      ],
      "name": "OwnershipTransferred",
      "type": "event"
    },
    {
      "stateMutability": "payable",
      "type": "fallback"
    },
    {
      "inputs": [
        {
          "internalType": "uint256",
          "name": "_nftTokenId",
          "type": "uint256"
        }
      ],
      "name": "createProposal",
      "outputs": [
        {
          "internalType": "uint256",
          "name": "",
          "type": "uint256"
        }
      ],
      "stateMutability": "nonpayable",
      "type": "function"
    },
    {
      "inputs": [
        {
          "internalType": "uint256",
          "name": "proposalIndex",
          "type": "uint256"
        }
      ],
      "name": "executeProposal",
      "outputs": [],
      "stateMutability": "nonpayable",
      "type": "function"
    },
    {
      "inputs": [],
      "name": "numProposals",
      "outputs": [
        {
          "internalType": "uint256",
          "name": "",
          "type": "uint256"
        }
      ],
      "stateMutability": "view",
      "type": "function"
    },
    {
      "inputs": [],
      "name": "owner",
      "outputs": [
        {
          "internalType": "address",
          "name": "",
          "type": "address"
        }
      ],
      "stateMutability": "view",
      "type": "function"
    },
    {
      "inputs": [
        {
          "internalType": "uint256",
          "name": "",
          "type": "uint256"
        }
      ],
      "name": "proposals",
      "outputs": [
        {
          "internalType": "uint256",
          "name": "nftTokenId",
          "type": "uint256"
        },
        {
          "internalType": "uint256",
          "name": "deadline",
          "type": "uint256"
        },
        {
          "internalType": "uint256",
          "name": "yayVotes",
          "type": "uint256"
        },
        {
          "internalType": "uint256",
          "name": "nayVotes",
          "type": "uint256"
        },
        {
          "internalType": "bool",
          "name": "executed",
          "type": "bool"
        }
      ],
      "stateMutability": "view",
      "type": "function"
    },
    {
      "inputs": [],
      "name": "renounceOwnership",
      "outputs": [],
      "stateMutability": "nonpayable",
      "type": "function"
    },
    {
      "inputs": [
        {
          "internalType": "address",
          "name": "newOwner",
          "type": "address"
        }
      ],
      "name": "transferOwnership",
      "outputs": [],
      "stateMutability": "nonpayable",
      "type": "function"
    },
    {
      "inputs": [
        {
          "internalType": "uint256",
          "name": "proposalIndex",
          "type": "uint256"
        },
        {
          "internalType": "enum CryptoDevsDAO.Vote",
          "name": "vote",
          "type": "uint8"
        }
      ],
      "name": "voteOnProposal",
      "outputs": [],
      "stateMutability": "nonpayable",
      "type": "function"
    },
    {
      "inputs": [],
      "name": "withdrawEther",
      "outputs": [],
      "stateMutability": "nonpayable",
      "type": "function"
    },
    {
      "stateMutability": "payable",
      "type": "receive"
    }
  ],
  "bytecode": "0x608060405260405162001a8d38038062001a8d833981810160405281019062000029919062000209565b620000496200003d620000d360201b60201c565b620000db60201b60201c565b81600160006101000a81548173ffffffffffffffffffffffffffffffffffffffff021916908373ffffffffffffffffffffffffffffffffffffffff16021790555080600260006101000a81548173ffffffffffffffffffffffffffffffffffffffff021916908373ffffffffffffffffffffffffffffffffffffffff160217905550505062000250565b600033905090565b60008060009054906101000a900473ffffffffffffffffffffffffffffffffffffffff169050816000806101000a81548173ffffffffffffffffffffffffffffffffffffffff021916908373ffffffffffffffffffffffffffffffffffffffff1602179055508173ffffffffffffffffffffffffffffffffffffffff168173ffffffffffffffffffffffffffffffffffffffff167f8be0079c531659141344cd1fd0a4f28419497f9722a3daafe3b4186f6b6457e060405160405180910390a35050565b600080fd5b600073ffffffffffffffffffffffffffffffffffffffff82169050919050565b6000620001d182620001a4565b9050919050565b620001e381620001c4565b8114620001ef57600080fd5b50565b6000815190506200020381620001d8565b92915050565b600080604083850312156200022357620002226200019f565b5b60006200023385828601620001f2565b92505060206200024685828601620001f2565b9150509250929050565b61182d80620002606000396000f3fe60806040526004361061008a5760003560e01c8063715018a611610059578063715018a6146101655780637362377b1461017c5780638da5cb5b14610193578063efafb22e146101be578063f2fde38b146101e757610091565b8063013cf08b146100935780630d61b519146100d4578063400e3949146100fd5780635a43dc001461012857610091565b3661009157005b005b34801561009f57600080fd5b506100ba60048036038101906100b59190611020565b610210565b6040516100cb959493929190611077565b60405180910390f35b3480156100e057600080fd5b506100fb60048036038101906100f69190611020565b610253565b005b34801561010957600080fd5b506101126105c8565b60405161011f91906110ca565b60405180910390f35b34801561013457600080fd5b5061014f600480360381019061014a9190611020565b6105ce565b60405161015c91906110ca565b60405180910390f35b34801561017157600080fd5b5061017a61080d565b005b34801561018857600080fd5b50610191610821565b005b34801561019f57600080fd5b506101a8610879565b6040516101b59190611126565b60405180910390f35b3480156101ca57600080fd5b506101e560048036038101906101e09190611166565b6108a2565b005b3480156101f357600080fd5b5061020e600480360381019061020991906111d2565b610d55565b005b60036020528060005260406000206000915090508060000154908060010154908060020154908060030154908060040160009054906101000a900460ff16905085565b6000600260009054906101000a900473ffffffffffffffffffffffffffffffffffffffff1673ffffffffffffffffffffffffffffffffffffffff166370a08231336040518263ffffffff1660e01b81526004016102b09190611126565b60206040518083038186803b1580156102c857600080fd5b505afa1580156102dc573d6000803e3d6000fd5b505050506040513d601f19601f820116820180604052508101906103009190611214565b11610340576040517f08c379a00000000000000000000000000000000000000000000000000000000081526004016103379061129e565b60405180910390fd5b80426003600083815260200190815260200160002060010154111561039a576040517f08c379a00000000000000000000000000000000000000000000000000000000081526004016103919061130a565b60405180910390fd5b600015156003600083815260200190815260200160002060040160009054906101000a900460ff16151514610404576040517f08c379a00000000000000000000000000000000000000000000000000000000081526004016103fb90611376565b60405180910390fd5b60006003600084815260200190815260200160002090508060030154816002015411156105a6576000600160009054906101000a900473ffffffffffffffffffffffffffffffffffffffff1673ffffffffffffffffffffffffffffffffffffffff166398d5fdca6040518163ffffffff1660e01b815260040160206040518083038186803b15801561049557600080fd5b505afa1580156104a9573d6000803e3d6000fd5b505050506040513d601f19601f820116820180604052508101906104cd9190611214565b905080471015610512576040517f08c379a0000000000000000000000000000000000000000000000000000000008152600401610509906113e2565b60405180910390fd5b600160009054906101000a900473ffffffffffffffffffffffffffffffffffffffff1673ffffffffffffffffffffffffffffffffffffffff1663efef39a18284600001546040518363ffffffff1660e01b815260040161057291906110ca565b6000604051808303818588803b15801561058b57600080fd5b505af115801561059f573d6000803e3d6000fd5b5050505050505b60018160040160006101000a81548160ff021916908315150217905550505050565b60045481565b600080600260009054906101000a900473ffffffffffffffffffffffffffffffffffffffff1673ffffffffffffffffffffffffffffffffffffffff166370a08231336040518263ffffffff1660e01b815260040161062c9190611126565b60206040518083038186803b15801561064457600080fd5b505afa158015610658573d6000803e3d6000fd5b505050506040513d601f19601f8201168201806040525081019061067c9190611214565b116106bc576040517f08c379a00000000000000000000000000000000000000000000000000000000081526004016106b39061129e565b60405180910390fd5b600160009054906101000a900473ffffffffffffffffffffffffffffffffffffffff1673ffffffffffffffffffffffffffffffffffffffff166396e494e8836040518263ffffffff1660e01b815260040161071791906110ca565b60206040518083038186803b15801561072f57600080fd5b505afa158015610743573d6000803e3d6000fd5b505050506040513d601f19601f82011682018060405250810190610767919061142e565b6107a6576040517f08c379a000000000000000000000000000000000000000000000000000000000815260040161079d906114a7565b60405180910390fd5b6000600360006004548152602001908152602001600020905082816000018190555061012c426107d691906114f6565b8160010181905550600460008154809291906107f19061154c565b919050555060016004546108059190611595565b915050919050565b610815610dd9565b61081f6000610e57565b565b610829610dd9565b610831610879565b73ffffffffffffffffffffffffffffffffffffffff166108fc479081150290604051600060405180830381858888f19350505050158015610876573d6000803e3d6000fd5b50565b60008060009054906101000a900473ffffffffffffffffffffffffffffffffffffffff16905090565b6000600260009054906101000a900473ffffffffffffffffffffffffffffffffffffffff1673ffffffffffffffffffffffffffffffffffffffff166370a08231336040518263ffffffff1660e01b81526004016108ff9190611126565b60206040518083038186803b15801561091757600080fd5b505afa15801561092b573d6000803e3d6000fd5b505050506040513d601f19601f8201168201806040525081019061094f9190611214565b1161098f576040517f08c379a00000000000000000000000000000000000000000000000000000000081526004016109869061129e565b60405180910390fd5b81426003600083815260200190815260200160002060010154116109e8576040517f08c379a00000000000000000000000000000000000000000000000000000000081526004016109df90611615565b60405180910390fd5b60006003600085815260200190815260200160002090506000600260009054906101000a900473ffffffffffffffffffffffffffffffffffffffff1673ffffffffffffffffffffffffffffffffffffffff166370a08231336040518263ffffffff1660e01b8152600401610a5c9190611126565b60206040518083038186803b158015610a7457600080fd5b505afa158015610a88573d6000803e3d6000fd5b505050506040513d601f19601f82011682018060405250810190610aac9190611214565b90506000805b82811015610ca057610b6f600260009054906101000a900473ffffffffffffffffffffffffffffffffffffffff1673ffffffffffffffffffffffffffffffffffffffff16632f745c5933846040518363ffffffff1660e01b8152600401610b1a929190611635565b60206040518083038186803b158015610b3257600080fd5b505afa158015610b46573d6000803e3d6000fd5b505050506040513d601f19601f82011682018060405250810190610b6a9190611214565b610f1b565b6000600260009054906101000a900473ffffffffffffffffffffffffffffffffffffffff1673ffffffffffffffffffffffffffffffffffffffff16632f745c5933846040518363ffffffff1660e01b8152600401610bce929190611635565b60206040518083038186803b158015610be657600080fd5b505afa158015610bfa573d6000803e3d6000fd5b505050506040513d601f19601f82011682018060405250810190610c1e9190611214565b90506000151585600501600083815260200190815260200160002060009054906101000a900460ff1615151415610c8c578280610c5a9061154c565b935050600185600501600083815260200190815260200160002060006101000a81548160ff0219169083151502179055505b508080610c989061154c565b915050610ab2565b5060008111610ce4576040517f08c379a0000000000000000000000000000000000000000000000000000000008152600401610cdb906116aa565b60405180910390fd5b60006001811115610cf857610cf76116ca565b5b856001811115610d0b57610d0a6116ca565b5b1415610d315780836002016000828254610d2591906114f6565b92505081905550610d4d565b80836003016000828254610d4591906114f6565b925050819055505b505050505050565b610d5d610dd9565b600073ffffffffffffffffffffffffffffffffffffffff168173ffffffffffffffffffffffffffffffffffffffff161415610dcd576040517f08c379a0000000000000000000000000000000000000000000000000000000008152600401610dc49061176b565b60405180910390fd5b610dd681610e57565b50565b610de1610fb4565b73ffffffffffffffffffffffffffffffffffffffff16610dff610879565b73ffffffffffffffffffffffffffffffffffffffff1614610e55576040517f08c379a0000000000000000000000000000000000000000000000000000000008152600401610e4c906117d7565b60405180910390fd5b565b60008060009054906101000a900473ffffffffffffffffffffffffffffffffffffffff169050816000806101000a81548173ffffffffffffffffffffffffffffffffffffffff021916908373ffffffffffffffffffffffffffffffffffffffff1602179055508173ffffffffffffffffffffffffffffffffffffffff168173ffffffffffffffffffffffffffffffffffffffff167f8be0079c531659141344cd1fd0a4f28419497f9722a3daafe3b4186f6b6457e060405160405180910390a35050565b610fb181604051602401610f2f91906110ca565b6040516020818303038152906040527ff5b1bba9000000000000000000000000000000000000000000000000000000007bffffffffffffffffffffffffffffffffffffffffffffffffffffffff19166020820180517bffffffffffffffffffffffffffffffffffffffffffffffffffffffff8381831617835250505050610fbc565b50565b600033905090565b60008151905060006a636f6e736f6c652e6c6f679050602083016000808483855afa5050505050565b600080fd5b6000819050919050565b610ffd81610fea565b811461100857600080fd5b50565b60008135905061101a81610ff4565b92915050565b60006020828403121561103657611035610fe5565b5b60006110448482850161100b565b91505092915050565b61105681610fea565b82525050565b60008115159050919050565b6110718161105c565b82525050565b600060a08201905061108c600083018861104d565b611099602083018761104d565b6110a6604083018661104d565b6110b3606083018561104d565b6110c06080830184611068565b9695505050505050565b60006020820190506110df600083018461104d565b92915050565b600073ffffffffffffffffffffffffffffffffffffffff82169050919050565b6000611110826110e5565b9050919050565b61112081611105565b82525050565b600060208201905061113b6000830184611117565b92915050565b6002811061114e57600080fd5b50565b60008135905061116081611141565b92915050565b6000806040838503121561117d5761117c610fe5565b5b600061118b8582860161100b565b925050602061119c85828601611151565b9150509250929050565b6111af81611105565b81146111ba57600080fd5b50565b6000813590506111cc816111a6565b92915050565b6000602082840312156111e8576111e7610fe5565b5b60006111f6848285016111bd565b91505092915050565b60008151905061120e81610ff4565b92915050565b60006020828403121561122a57611229610fe5565b5b6000611238848285016111ff565b91505092915050565b600082825260208201905092915050565b7f4e4f545f415f44414f5f4d454d42455200000000000000000000000000000000600082015250565b6000611288601083611241565b915061129382611252565b602082019050919050565b600060208201905081810360008301526112b78161127b565b9050919050565b7f444541444c494e455f4e4f545f45584345454445440000000000000000000000600082015250565b60006112f4601583611241565b91506112ff826112be565b602082019050919050565b60006020820190508181036000830152611323816112e7565b9050919050565b7f50524f504f53414c5f414c52454144595f455845435554454400000000000000600082015250565b6000611360601983611241565b915061136b8261132a565b602082019050919050565b6000602082019050818103600083015261138f81611353565b9050919050565b7f4e4f545f454e4f5547485f46554e445300000000000000000000000000000000600082015250565b60006113cc601083611241565b91506113d782611396565b602082019050919050565b600060208201905081810360008301526113fb816113bf565b9050919050565b61140b8161105c565b811461141657600080fd5b50565b60008151905061142881611402565b92915050565b60006020828403121561144457611443610fe5565b5b600061145284828501611419565b91505092915050565b7f4e46545f4e4f545f464f525f53414c4500000000000000000000000000000000600082015250565b6000611491601083611241565b915061149c8261145b565b602082019050919050565b600060208201905081810360008301526114c081611484565b9050919050565b7f4e487b7100000000000000000000000000000000000000000000000000000000600052601160045260246000fd5b600061150182610fea565b915061150c83610fea565b9250827fffffffffffffffffffffffffffffffffffffffffffffffffffffffffffffffff03821115611541576115406114c7565b5b828201905092915050565b600061155782610fea565b91507fffffffffffffffffffffffffffffffffffffffffffffffffffffffffffffffff82141561158a576115896114c7565b5b600182019050919050565b60006115a082610fea565b91506115ab83610fea565b9250828210156115be576115bd6114c7565b5b828203905092915050565b7f444541444c494e455f4558434545444544000000000000000000000000000000600082015250565b60006115ff601183611241565b915061160a826115c9565b602082019050919050565b6000602082019050818103600083015261162e816115f2565b9050919050565b600060408201905061164a6000830185611117565b611657602083018461104d565b9392505050565b7f414c52454144595f564f54454400000000000000000000000000000000000000600082015250565b6000611694600d83611241565b915061169f8261165e565b602082019050919050565b600060208201905081810360008301526116c381611687565b9050919050565b7f4e487b7100000000000000000000000000000000000000000000000000000000600052602160045260246000fd5b7f4f776e61626c653a206e6577206f776e657220697320746865207a65726f206160008201527f6464726573730000000000000000000000000000000000000000000000000000602082015250565b6000611755602683611241565b9150611760826116f9565b604082019050919050565b6000602082019050818103600083015261178481611748565b9050919050565b7f4f776e61626c653a2063616c6c6572206973206e6f7420746865206f776e6572600082015250565b60006117c1602083611241565b91506117cc8261178b565b602082019050919050565b600060208201905081810360008301526117f0816117b4565b905091905056fea2646970667358221220c0a52b6af20a5964f77882c0f2a5dcaeb8f1ef2376dd5847fe17e685375c757b64736f6c63430008090033",
  "linkReferences": {},
  "deployedLinkReferences": {}
}