{
  "_format": "hh-sol-artifact-1",
  "contractName": "CryptoDevsDAO",
  "sourceName": "contracts/CryptoDevsDAO.sol",
  "abi": [
    {
      "inputs": [
        {
          "internalType": "address",
          "name": "_nftMarketplace",
          "type": "address"
        },
        {
          "internalType": "address",
          "name": "_cryptoDevsNFT",
          "type": "address"
        }
      ],
      "stateMutability": "payable",
      "type": "constructor"
    },
    {
      "anonymous": false,
      "inputs": [
        {
          "indexed": true,
          "internalType": "address",
          "name": "previousOwner",
          "type": "address"
        },
        {
          "indexed": true,
          "internalType": "address",
          "name": "newOwner",
          "type": "address"
        }
      ],
      "name": "OwnershipTransferred",
      "type": "event"
    },
    {
      "stateMutability": "payable",
      "type": "fallback"
    },
    {
      "inputs": [
        {
          "internalType": "uint256",
          "name": "_nftTokenId",
          "type": "uint256"
        }
      ],
      "name": "createProposal",
      "outputs": [
        {
          "internalType": "uint256",
          "name": "",
          "type": "uint256"
        }
      ],
      "stateMutability": "nonpayable",
      "type": "function"
    },
    {
      "inputs": [
        {
          "internalType": "uint256",
          "name": "proposalIndex",
          "type": "uint256"
        }
      ],
      "name": "executeProposal",
      "outputs": [],
      "stateMutability": "nonpayable",
      "type": "function"
    },
    {
      "inputs": [],
      "name": "numProposals",
      "outputs": [
        {
          "internalType": "uint256",
          "name": "",
          "type": "uint256"
        }
      ],
      "stateMutability": "view",
      "type": "function"
    },
    {
      "inputs": [],
      "name": "owner",
      "outputs": [
        {
          "internalType": "address",
          "name": "",
          "type": "address"
        }
      ],
      "stateMutability": "view",
      "type": "function"
    },
    {
      "inputs": [
        {
          "internalType": "uint256",
          "name": "",
          "type": "uint256"
        }
      ],
      "name": "proposals",
      "outputs": [
        {
          "internalType": "uint256",
          "name": "nftTokenId",
          "type": "uint256"
        },
        {
          "internalType": "uint256",
          "name": "deadline",
          "type": "uint256"
        },
        {
          "internalType": "uint256",
          "name": "yayVotes",
          "type": "uint256"
        },
        {
          "internalType": "uint256",
          "name": "nayVotes",
          "type": "uint256"
        },
        {
          "internalType": "bool",
          "name": "executed",
          "type": "bool"
        }
      ],
      "stateMutability": "view",
      "type": "function"
    },
    {
      "inputs": [],
      "name": "renounceOwnership",
      "outputs": [],
      "stateMutability": "nonpayable",
      "type": "function"
    },
    {
      "inputs": [
        {
          "internalType": "address",
          "name": "newOwner",
          "type": "address"
        }
      ],
      "name": "transferOwnership",
      "outputs": [],
      "stateMutability": "nonpayable",
      "type": "function"
    },
    {
      "inputs": [
        {
          "internalType": "uint256",
          "name": "proposalIndex",
          "type": "uint256"
        },
        {
          "internalType": "enum CryptoDevsDAO.Vote",
          "name": "vote",
          "type": "uint8"
        }
      ],
      "name": "voteOnProposal",
      "outputs": [],
      "stateMutability": "nonpayable",
      "type": "function"
    },
    {
      "inputs": [],
      "name": "withdrawEther",
      "outputs": [],
      "stateMutability": "nonpayable",
      "type": "function"
    },
    {
      "stateMutability": "payable",
      "type": "receive"
    }
  ],
  "bytecode": "0x60806040526040516200175b3803806200175b833981810160405281019062000029919062000209565b620000496200003d620000d360201b60201c565b620000db60201b60201c565b81600160006101000a81548173ffffffffffffffffffffffffffffffffffffffff021916908373ffffffffffffffffffffffffffffffffffffffff16021790555080600260006101000a81548173ffffffffffffffffffffffffffffffffffffffff021916908373ffffffffffffffffffffffffffffffffffffffff160217905550505062000250565b600033905090565b60008060009054906101000a900473ffffffffffffffffffffffffffffffffffffffff169050816000806101000a81548173ffffffffffffffffffffffffffffffffffffffff021916908373ffffffffffffffffffffffffffffffffffffffff1602179055508173ffffffffffffffffffffffffffffffffffffffff168173ffffffffffffffffffffffffffffffffffffffff167f8be0079c531659141344cd1fd0a4f28419497f9722a3daafe3b4186f6b6457e060405160405180910390a35050565b600080fd5b600073ffffffffffffffffffffffffffffffffffffffff82169050919050565b6000620001d182620001a4565b9050919050565b620001e381620001c4565b8114620001ef57600080fd5b50565b6000815190506200020381620001d8565b92915050565b600080604083850312156200022357620002226200019f565b5b60006200023385828601620001f2565b92505060206200024685828601620001f2565b9150509250929050565b6114fb80620002606000396000f3fe60806040526004361061008a5760003560e01c8063715018a611610059578063715018a6146101655780637362377b1461017c5780638da5cb5b14610193578063efafb22e146101be578063f2fde38b146101e757610091565b8063013cf08b146100935780630d61b519146100d4578063400e3949146100fd5780635a43dc001461012857610091565b3661009157005b005b34801561009f57600080fd5b506100ba60048036038101906100b59190610d5a565b610210565b6040516100cb959493929190610db1565b60405180910390f35b3480156100e057600080fd5b506100fb60048036038101906100f69190610d5a565b610253565b005b34801561010957600080fd5b506101126104db565b60405161011f9190610e04565b60405180910390f35b34801561013457600080fd5b5061014f600480360381019061014a9190610d5a565b6104e1565b60405161015c9190610e04565b60405180910390f35b34801561017157600080fd5b5061017a610634565b005b34801561018857600080fd5b50610191610648565b005b34801561019f57600080fd5b506101a86106a0565b6040516101b59190610e60565b60405180910390f35b3480156101ca57600080fd5b506101e560048036038101906101e09190610ea0565b6106c9565b005b3480156101f357600080fd5b5061020e60048036038101906102099190610f0c565b610a8f565b005b60036020528060005260406000206000915090508060000154908060010154908060020154908060030154908060040160009054906101000a900460ff16905085565b8042600360008381526020019081526020016000206001015411156102ad576040517f08c379a00000000000000000000000000000000000000000000000000000000081526004016102a490610f96565b60405180910390fd5b600015156003600083815260200190815260200160002060040160009054906101000a900460ff16151514610317576040517f08c379a000000000000000000000000000000000000000000000000000000000815260040161030e90611002565b60405180910390fd5b60006003600084815260200190815260200160002090508060030154816002015411156104b9576000600160009054906101000a900473ffffffffffffffffffffffffffffffffffffffff1673ffffffffffffffffffffffffffffffffffffffff166398d5fdca6040518163ffffffff1660e01b815260040160206040518083038186803b1580156103a857600080fd5b505afa1580156103bc573d6000803e3d6000fd5b505050506040513d601f19601f820116820180604052508101906103e09190611037565b905080471015610425576040517f08c379a000000000000000000000000000000000000000000000000000000000815260040161041c906110b0565b60405180910390fd5b600160009054906101000a900473ffffffffffffffffffffffffffffffffffffffff1673ffffffffffffffffffffffffffffffffffffffff1663efef39a18284600001546040518363ffffffff1660e01b81526004016104859190610e04565b6000604051808303818588803b15801561049e57600080fd5b505af11580156104b2573d6000803e3d6000fd5b5050505050505b60018160040160006101000a81548160ff021916908315150217905550505050565b60045481565b6000600160009054906101000a900473ffffffffffffffffffffffffffffffffffffffff1673ffffffffffffffffffffffffffffffffffffffff166396e494e8836040518263ffffffff1660e01b815260040161053e9190610e04565b60206040518083038186803b15801561055657600080fd5b505afa15801561056a573d6000803e3d6000fd5b505050506040513d601f19601f8201168201806040525081019061058e91906110fc565b6105cd576040517f08c379a00000000000000000000000000000000000000000000000000000000081526004016105c490611175565b60405180910390fd5b6000600360006004548152602001908152602001600020905082816000018190555061012c426105fd91906111c4565b8160010181905550600460008154809291906106189061121a565b9190505550600160045461062c9190611263565b915050919050565b61063c610b13565b6106466000610b91565b565b610650610b13565b6106586106a0565b73ffffffffffffffffffffffffffffffffffffffff166108fc479081150290604051600060405180830381858888f1935050505015801561069d573d6000803e3d6000fd5b50565b60008060009054906101000a900473ffffffffffffffffffffffffffffffffffffffff16905090565b8142600360008381526020019081526020016000206001015411610722576040517f08c379a0000000000000000000000000000000000000000000000000000000008152600401610719906112e3565b60405180910390fd5b60006003600085815260200190815260200160002090506000600260009054906101000a900473ffffffffffffffffffffffffffffffffffffffff1673ffffffffffffffffffffffffffffffffffffffff166370a08231336040518263ffffffff1660e01b81526004016107969190610e60565b60206040518083038186803b1580156107ae57600080fd5b505afa1580156107c2573d6000803e3d6000fd5b505050506040513d601f19601f820116820180604052508101906107e69190611037565b90506000805b828110156109da576108a9600260009054906101000a900473ffffffffffffffffffffffffffffffffffffffff1673ffffffffffffffffffffffffffffffffffffffff16632f745c5933846040518363ffffffff1660e01b8152600401610854929190611303565b60206040518083038186803b15801561086c57600080fd5b505afa158015610880573d6000803e3d6000fd5b505050506040513d601f19601f820116820180604052508101906108a49190611037565b610c55565b6000600260009054906101000a900473ffffffffffffffffffffffffffffffffffffffff1673ffffffffffffffffffffffffffffffffffffffff16632f745c5933846040518363ffffffff1660e01b8152600401610908929190611303565b60206040518083038186803b15801561092057600080fd5b505afa158015610934573d6000803e3d6000fd5b505050506040513d601f19601f820116820180604052508101906109589190611037565b90506000151585600501600083815260200190815260200160002060009054906101000a900460ff16151514156109c65782806109949061121a565b935050600185600501600083815260200190815260200160002060006101000a81548160ff0219169083151502179055505b5080806109d29061121a565b9150506107ec565b5060008111610a1e576040517f08c379a0000000000000000000000000000000000000000000000000000000008152600401610a1590611378565b60405180910390fd5b60006001811115610a3257610a31611398565b5b856001811115610a4557610a44611398565b5b1415610a6b5780836002016000828254610a5f91906111c4565b92505081905550610a87565b80836003016000828254610a7f91906111c4565b925050819055505b505050505050565b610a97610b13565b600073ffffffffffffffffffffffffffffffffffffffff168173ffffffffffffffffffffffffffffffffffffffff161415610b07576040517f08c379a0000000000000000000000000000000000000000000000000000000008152600401610afe90611439565b60405180910390fd5b610b1081610b91565b50565b610b1b610cee565b73ffffffffffffffffffffffffffffffffffffffff16610b396106a0565b73ffffffffffffffffffffffffffffffffffffffff1614610b8f576040517f08c379a0000000000000000000000000000000000000000000000000000000008152600401610b86906114a5565b60405180910390fd5b565b60008060009054906101000a900473ffffffffffffffffffffffffffffffffffffffff169050816000806101000a81548173ffffffffffffffffffffffffffffffffffffffff021916908373ffffffffffffffffffffffffffffffffffffffff1602179055508173ffffffffffffffffffffffffffffffffffffffff168173ffffffffffffffffffffffffffffffffffffffff167f8be0079c531659141344cd1fd0a4f28419497f9722a3daafe3b4186f6b6457e060405160405180910390a35050565b610ceb81604051602401610c699190610e04565b6040516020818303038152906040527ff5b1bba9000000000000000000000000000000000000000000000000000000007bffffffffffffffffffffffffffffffffffffffffffffffffffffffff19166020820180517bffffffffffffffffffffffffffffffffffffffffffffffffffffffff8381831617835250505050610cf6565b50565b600033905090565b60008151905060006a636f6e736f6c652e6c6f679050602083016000808483855afa5050505050565b600080fd5b6000819050919050565b610d3781610d24565b8114610d4257600080fd5b50565b600081359050610d5481610d2e565b92915050565b600060208284031215610d7057610d6f610d1f565b5b6000610d7e84828501610d45565b91505092915050565b610d9081610d24565b82525050565b60008115159050919050565b610dab81610d96565b82525050565b600060a082019050610dc66000830188610d87565b610dd36020830187610d87565b610de06040830186610d87565b610ded6060830185610d87565b610dfa6080830184610da2565b9695505050505050565b6000602082019050610e196000830184610d87565b92915050565b600073ffffffffffffffffffffffffffffffffffffffff82169050919050565b6000610e4a82610e1f565b9050919050565b610e5a81610e3f565b82525050565b6000602082019050610e756000830184610e51565b92915050565b60028110610e8857600080fd5b50565b600081359050610e9a81610e7b565b92915050565b60008060408385031215610eb757610eb6610d1f565b5b6000610ec585828601610d45565b9250506020610ed685828601610e8b565b9150509250929050565b610ee981610e3f565b8114610ef457600080fd5b50565b600081359050610f0681610ee0565b92915050565b600060208284031215610f2257610f21610d1f565b5b6000610f3084828501610ef7565b91505092915050565b600082825260208201905092915050565b7f444541444c494e455f4e4f545f45584345454445440000000000000000000000600082015250565b6000610f80601583610f39565b9150610f8b82610f4a565b602082019050919050565b60006020820190508181036000830152610faf81610f73565b9050919050565b7f50524f504f53414c5f414c52454144595f455845435554454400000000000000600082015250565b6000610fec601983610f39565b9150610ff782610fb6565b602082019050919050565b6000602082019050818103600083015261101b81610fdf565b9050919050565b60008151905061103181610d2e565b92915050565b60006020828403121561104d5761104c610d1f565b5b600061105b84828501611022565b91505092915050565b7f4e4f545f454e4f5547485f46554e445300000000000000000000000000000000600082015250565b600061109a601083610f39565b91506110a582611064565b602082019050919050565b600060208201905081810360008301526110c98161108d565b9050919050565b6110d981610d96565b81146110e457600080fd5b50565b6000815190506110f6816110d0565b92915050565b60006020828403121561111257611111610d1f565b5b6000611120848285016110e7565b91505092915050565b7f4e46545f4e4f545f464f525f53414c4500000000000000000000000000000000600082015250565b600061115f601083610f39565b915061116a82611129565b602082019050919050565b6000602082019050818103600083015261118e81611152565b9050919050565b7f4e487b7100000000000000000000000000000000000000000000000000000000600052601160045260246000fd5b60006111cf82610d24565b91506111da83610d24565b9250827fffffffffffffffffffffffffffffffffffffffffffffffffffffffffffffffff0382111561120f5761120e611195565b5b828201905092915050565b600061122582610d24565b91507fffffffffffffffffffffffffffffffffffffffffffffffffffffffffffffffff82141561125857611257611195565b5b600182019050919050565b600061126e82610d24565b915061127983610d24565b92508282101561128c5761128b611195565b5b828203905092915050565b7f444541444c494e455f4558434545444544000000000000000000000000000000600082015250565b60006112cd601183610f39565b91506112d882611297565b602082019050919050565b600060208201905081810360008301526112fc816112c0565b9050919050565b60006040820190506113186000830185610e51565b6113256020830184610d87565b9392505050565b7f414c52454144595f564f54454400000000000000000000000000000000000000600082015250565b6000611362600d83610f39565b915061136d8261132c565b602082019050919050565b6000602082019050818103600083015261139181611355565b9050919050565b7f4e487b7100000000000000000000000000000000000000000000000000000000600052602160045260246000fd5b7f4f776e61626c653a206e6577206f776e657220697320746865207a65726f206160008201527f6464726573730000000000000000000000000000000000000000000000000000602082015250565b6000611423602683610f39565b915061142e826113c7565b604082019050919050565b6000602082019050818103600083015261145281611416565b9050919050565b7f4f776e61626c653a2063616c6c6572206973206e6f7420746865206f776e6572600082015250565b600061148f602083610f39565b915061149a82611459565b602082019050919050565b600060208201905081810360008301526114be81611482565b905091905056fea264697066735822122062744d37ed3e378c99f990e284bacc8b47e89661cbd51a295b72bc3f69b7297c64736f6c63430008090033",
  "linkReferences": {},
  "deployedLinkReferences": {}
}